:1000000000400020E1130000211400002314000030
:1000100000000000000000000000000000000000E0
:100020000000000000000000000000002514000097
:100030000000000000000000271400002914000048
:100040002B14000081310000391200002B14000035
:100050002B140000000000002B1400002B140000E3
:100060002B1400002B1400000D4100002B14000085
:100070002B1400002B1400002B1400002B14000084
:100080002B1400002B1400002B1400002B14000074
:10009000D93400002B1400002B1400002B14000096
:1000A0002B1400002B1400000000000000000000D2
:1000B0000000000000000000000000000000000040
:1000C00010B5064C2378002B07D1054B002B02D02E
:1000D000044800E000BF0123237010BD8800002009
:1000E0000000000054430000084B10B5002B03D063
:1000F0000749084800E000BF07480368002B00D10B
:1001000010BD064B002BFBD09847F9E7000000001C
:100110008C000020544300008400002000000000F8
:10012000164B002B00D1144B9D46402292029A1A86
:10013000924600218B460F461348144A121A00F0CB
:1001400065F80F4B002B00D098470E4B002B00D0CA
:1001500098470020002104000D000D48002802D01F
:100160000C4800E000BF00F02DF82000290000F04E
:10017000D5F800F011F8C04600000800004000204B
:10018000000000000000000088000020C8060020D9
:100190000000000000000000084B10B50400002B18
:1001A00002D0002100E000BF054B1868836A002BD5
:1001B00000D09847200000F031F8C0460000000051
:1001C000D042000070B500260C4D0D4C641BA410ED
:1001D000A64209D1002604F06FF80A4D0A4C641BB0
:1001E000A410A64205D170BDB300EB589847013664
:1001F000EEE7B300EB5898470136F2E77C000020A9
:100200007C0000207C000020800000200300821879
:10021000934200D1704719700133F9E7FEE7C046F9
:100220002E4B1B78012B00D070472D4B1B681B07F2
:10023000FAD1F0222B4B1B68134027D12A4B1B68A5
:1002400013422BD0264B1B681B07EDD1F022254B08
:100250001B681340402B2DD0F022224B1B6813400B
:10026000A02B01D0D02BDFD1F0231F4A12681A42F5
:10027000DAD11E4A1368012B04D01D4B136013689A
:10028000012BFCD1C0221B4B1A60CDE7102B01D0F3
:10029000302BDBD1144B1B681342D7D1164A174BB6
:1002A0001A608022164B12021A600C4B1B78012B2D
:1002B000C8D0B9E70C4B1B681342CDD1C1238022B3
:1002C0000121DB00D205D150044B1B78012BABD1AF
:1002D000034B1B681B07BFD0A6E7C046E00F00F02A
:1002E000E40F00F0E80F00F0EC0F00F000EC064027
:1002F0007593000014EC0640DFFF07C004050040C2
:10030000186C004010B50378022B02D0012B00D0EE
:1003100010BD406800F064FCFAE7C046F0B5454601
:10032000DE4657464E46E0B58BB003A80200224B8E
:1003300032CB32C2214B224A069301230793214B31
:1003400006A9089380235B000993FD3B00F004FDA0
:10035000002801D000F044FC012001F093FB1A4872
:1003600001F0ECF9194801F001FA5522184B19492E
:100370001A700020523A01F07CF80322154901203E
:1003800001F077F803221449022001F072F80322E9
:100390001249032001F06DF803221149042001F0F5
:1003A00068F803220F49052001F063F8002501F0E9
:1003B0003DF80D4C2DE3C046D4420000A0010020C2
:1003C00005030000A8010020040302010807060538
:1003D000A4000020C4000020E400002064010020EC
:1003E0000401002024010020A80000200221023A7C
:1003F000D80600D5110040209A06D20FD2000A4339
:10040000010019404E1EB14152B209010A43D909F7
:1004100049010A432270F14A5178084200D114E39D
:10042000062294464AB23E38002A00DA14E301223A
:100430001A40D20002439807C00F5B0752B2000176
:10044000DB0F02435B011343E3703E230B40A371B8
:10045000E24B9B789A0600D4F4E20C2204205E065C
:1004600000D51000DA0912010243012001404901C0
:100470000A4362729A0700D4E1E20C220421580771
:1004800000D5110008221A40501E8241DB061201DD
:10049000DB0F0A435B0113432373D14B1B78002B03
:1004A00000D18EE04021CE4B1D70CE4B1B785AB24E
:1004B0009146D00F0A001A40561EB2415200024324
:1004C00020201840461EB041800002431020804684
:1004D0001840461EB041C000104308221A40561E64
:1004E000B24112010243012062709A088446104012
:1004F0008246022248465646104030436646334004
:100500009B000343B7484078C609F6001E430B0022
:10051000B14603405E1EB3414E461B01334366465F
:10052000237143091E404346B14603405E1EB3415A
:100530004E465B00334308260640771EBE41B60098
:1005400033430426B0460640771EBE41F6001E43E4
:100550001300B14603405E1EB3414E461B013343B8
:10056000E371634603409A469E4B9B7858B281469E
:10057000C00F4000834650465E46304382461940D5
:10058000481E814150468900014320201840461EE4
:10059000B041C0000143A1726146180901408C4678
:1005A00008211940481E81414E4640461A403040BD
:1005B0006646531E9A41490030430143D2000A4324
:1005C0006273894B1B78002B4DD0874B1D70874B76
:1005D00019784BB2002B00DA43E2082200234806C8
:1005E00000D513008A06D20F12011A43CB06DB0F87
:1005F0005B011A430823A2700B4200D11CE20422C3
:100600000433480700D51A008B07DB0F1B01134387
:100610000122114049010B436371744B59784BB26D
:10062000002B00DA1AE208220023480600D5130046
:100630008A06D20F12011A43CB06DB0F5B011A4365
:10064000082322720B4200D1F3E10422043348074D
:1006500000D51A008B07DB0F1B0113430122114049
:1006600049010B43E372624B1B78002B1AD0604B9D
:100670001D705E4B1B785AB29046D20F94465A06B4
:10068000D20F50009A06D20F9100102213405E1E26
:10069000B34146463240664632430243DB000A43DA
:1006A0001343A373534B1B78002B00D1A8E0514B8D
:1006B0001D70514B1A784023180010409846431E75
:1006C00098412023D1094000014318001040994669
:1006D000431E9841102380000843190011409C4696
:1006E0004B1E99410823C90013400843591E8B41F2
:1006F0001B01034304201900030013405E1EB34195
:100700005B010B430121E37353080A400B40520085
:100710001A43394B5B78DE09B600324346461E4029
:10072000771EBE41F60016434A46B2461A40561E90
:10073000B24156461201324366461E40771EBE4104
:1007400076013243A274DA080A40914602001A4048
:10075000561EB2414E46520016430222B2461600C1
:100760001E40771EBE41B600B14656464F460B406E
:100770003E43DB003343204EB678B146F6093601DE
:100780001E43B24643464E4633405E1EB341564674
:100790005B01334363754B465B090B404E469846FD
:1007A000634633405E1EB34146465B0033434F46CB
:1007B00008263E40771EBE41B60033434E463040C9
:1007C000461EB041C00018434B461A40531E9A4182
:1007D0004B4612011940104349010FE0C4000020AC
:1007E00090010020440100208D010020E400002041
:1007F000910100208E010020040100200143217698
:10080000A14B1B78002B00D197E09F4B1D709F4B95
:100810001A784023180010409846431E9841202320
:10082000D10940000143180010409946431E9841E9
:10083000102380000843190011409C464B1E99412B
:100840000823C90013400843591E8B411B01034371
:1008500004201900030013405E1EB3415B010B43EB
:100860000121237453080A400B4052001A43874B5E
:100870005B78DE09B600324346461E40771EBE4115
:10088000F60016434A46B2461A40561EB241564634
:100890001201324366461E40771EBE417601324346
:1008A000E274DA080A40914602001A40561EB2412C
:1008B0004E46520016430222B24616001E40771ED4
:1008C000BE41B600B14656464F460B403E43DB00A4
:1008D00033436E4EB678B146F60936011E43B24632
:1008E00043464E4633405E1EB34156465B0133439A
:1008F000A3754B465B090B404E4698466346334012
:100900005E1EB34146465B0033434F4608263E40D9
:10091000771EBE41B60033434E463040461EB041BE
:10092000C00018434B461A40531E9A414B461201D1
:1009300019401043490101436176554800F05EFAC1
:10094000002804D1524B1B78732B00D193E00A206E
:100950000138C046C046C046C046C046C046C04634
:10096000C046C046C046C046C046F1D1494B494A80
:100970001B68494E01331360012291469846474B4C
:100980001B684B449C466246444B1A60444B1B68B0
:10099000581C434B1860434B1B68591C414B196052
:1009A000414B1B685A1C404B1A603B4B1B68019320
:1009B000013333603D4EB04506D9364E2570E570A3
:1009C000A571657225733560384EB44506D9334E2E
:1009D00065702571E571A57265733560334EB0425F
:1009E00005D92F48A57065712572E57205602F48FD
:1009F000814202D92B49A5730D602C498A4205D941
:100A0000294AE573A574657525761560274A9342D2
:100A10002AD8274B1B78002B00D13EE50822244B17
:100A20001D70244B1B781A4200D0DFE40422002101
:100A3000DEE4082300220AE608230022E1E508227A
:100A400000211CE50822002009E5042294464AB250
:100A50000020002A00DBEAE46046E8E40B320423CD
:100A6000E3E50C220423BAE50B4B2574E574A57568
:100A700065761D60CDE71B21200000F0C7FAE0205D
:100A800000F0D6F963E7C0468F0100202401002062
:100A90003003002084010020980100209C010020E8
:100AA00088010020A401002094010020A0860100FC
:100AB0008C010020C400002082B002B07047C04604
:100AC00082B002B07047C0467047C046202310B5C0
:100AD00084B0041E0191039315D001282AD0022866
:100AE00033D003283DD0042847D0052816D0200055
:100AF00000F094FD55232749032220000B7000F0DD
:100B0000B8FC04B010BD0122234B24491A70244BB9
:100B100003AA1860002000F0EFFCE8E70122214B57
:100B200021491A700022214B05201A6003AA00F007
:100B3000E3FCDCE700221E4B1E4918701E4B01200F
:100B40001A6003AA00F0D8FCD1E701221B4B1C4914
:100B50001A7000221B4B02201A6003AA00F0CCFC82
:100B6000C5E70122184B19491A700022184B0320BF
:100B70001A6003AA00F0C0FCB9E70122154B164920
:100B80001A700022154B04201A6003AA00F0B4FC6E
:100B9000ADE7C046A40000208C010020C400002066
:100BA000840100208F0100202401002098010020F2
:100BB00090010020440100209C0100208D010020B4
:100BC000E400002088010020910100206401002041
:100BD000A40100208E0100200401002094010020C7
:100BE000002300B585B001AA90600021034813805E
:100BF000536000F005F805B000BDC046014000009C
:100C0000BFF34F8F034A044BDA60BFF34F8FC046E8
:100C1000FDE7C0460400FA0500ED00E010B500292C
:100C20000DD00923002A01D1180010BD541E224006
:100C3000FAD1826001608480C2600023F4E70E2351
:100C4000F2E7C046030010B59C888068DA68121A83
:100C50000420944200D210BDDA68002014401A68C3
:100C60001155DA680132DA60F5E7C04610B58468DC
:100C7000C26803000520944209D09A68988802400F
:100C80001868825C00200A709A6801329A6010BD70
:100C900030B5047885B0012C19D0022C34D0002C4A
:100CA00001D005B030BD274D274C29002000FFF7AB
:100CB000DDFF002823D0A268E3689A42F1D1032324
:100CC00002AA1370214B10001B689847E9E743689C
:100CD0001F4D19782800FFF7B5FF002822D1AA6818
:100CE000EB689B1A012B25D0A968AA88EB685B1AD0
:100CF0009A42D6D30121174800F0E8F9D1E7012143
:100D0000280000F083F9D6E702AB1C70C36801210C
:100D100010480193039300F0D9F90C4B02A81B680B
:100D20009847BEE702AB1C70084B03901B6802A8F3
:100D30009847D9E702AB1870044B02A81B68984784
:100D4000D2E7C046D0020020BC020020A80200204A
:100D5000AC020020CC020020F0B51E00214B0500A3
:100D600089B00C001A600720002906D08A881E4826
:100D70000968FFF753FF002801D009B0F0BDA28930
:100D8000A1681A48FFF74AFF0028F6D16A46184BB7
:100D9000684692CB92C292CB92C212CB12C2AB687F
:100DA00006932B7906775A1E934103756B790E22B1
:100DB000591E8B415B421A404275EB780293AB7827
:100DC00003932B7801936B7800930A4900F08EF817
:100DD0000028D2D100F01AFA0121074800F076F974
:100DE000CBE7C046A8020020AC020020BC020020D5
:100DF000E0420000910C0000CC02002070B50A4CCB
:100E00000500A168A288E3685B1A9A4204D0290011
:100E10002000FFF72BFF70BD0121044800F056F9B8
:100E20000028F4D00520F6E7AC020020CC02002018
:100E300070B50D4D01002800FFF704FF041E01D01E
:100E4000200070BD00F03AF90028F9D1074E2800C3
:100E50003100FFF70BFF0028F2D10121300000F034
:100E6000D5F80400ECE7C046BC020020D002002008
:100E7000F0B500281EDB1B4A03249446FF2217000E
:100E80008308C026C0B20440E4008901A7400A409C
:100E9000A2409B006344B6009D59BD432A439A512A
:100EA0001F23C02118401E3B83400E4A4900535067
:100EB0001360F0BDFF240C4A0325944622000F2343
:100EC000C0B20540ED008901AA400C40AC4003408F
:100ED000083B9B089B006344DE6996433443DC6116
:100EE000DEE7C04600E100E000ED00E0F0B5D646E8
:100EF0004F464646C0B53B4C0300E27E0820002A20
:100F000004D01CBC90469946A246F0BD002B65D08B
:100F1000186801328240A020A125C005ED00425191
:100F2000A94603251A68AA46C132FF32920015501D
:100F300000255A68AC46C132FF32920015509F69B5
:100F4000294A2A4D57511F7D5D7D3D43284FD5517C
:100F50005D681F68A846274D57514746264D575193
:100F60001D7D012D19D19F683E00E0277F00B84606
:100F70004644B70066463E50DE68B5404E46855151
:100F80005646DD68C135FF35AD002E504E46D86857
:100F90009D689051A220C00015501A6961602260BE
:100FA00000290DD0197F0023144A15481360154AF3
:100FB0001360C1230C4A9B00D0500220FFF758FF5A
:100FC000A0230421084ADB00D15000230122E3754D
:100FD0002376A375E276A376002092E780220A4B5F
:100FE000920098E7D4020020002000402405000071
:100FF0006C0500000C050000140500001C210040D9
:10100000800002004421004000430000F0B5254A62
:101010000400937D1120002B00D0F0BD01259175B7
:1010200021482249938294600B6005600B60938A8B
:101030001F4EE05C938A1F4D01339BB29382705127
:1010400053680020002BE8D1802000274000947DC9
:10105000938A9C4203D812E0938A834202D00B68A1
:10106000002BF9D0938A8342F2D00F60938A946860
:10107000E45C938A01339BB293827451E7E7802347
:10108000918A5B0099420AD008490B68002BFCD07A
:1010900001210020084B196000239375BDE70F2044
:1010A000FAE7C046D4020020082000401C2100407E
:1010B000002000401C0500000C200040024B987DE1
:1010C000431E9841C0B27047D4020020F0B5D64606
:1010D0004F464646C0B5474B5A68002A05D0812680
:1010E000C224454DB600A4002E51DC7D002C0DD04D
:1010F0001C7E002C1FD0002A00D179E08121C12361
:101100003D4A89009B00D15011200FE0D975997E8E
:10111000D8605C761C76002948D0002A0FD0812147
:10112000C1230020344A89009B00D1501CBC90464A
:101130009946A246F0BD18611976002AEFD12F4FCB
:101140002F4E3A602F4ABA4694462B4A9146A32224
:10115000D20090466246146835682200511E8A41CA
:1011600051460868D2B201004F1EB941C9B2002DE4
:1011700003D1002801D1002CECD0002A2BD100296A
:1011800029D1D87D00281AD1326041464A465258AA
:101190005A7ED97D9142DDD80022DA759B7E002BE4
:1011A0001FD00122144B00201A60BFE7154A1160BE
:1011B000134A11600121104A11605A68ADE731608D
:1011C000404649465A7E0958D86881545A7E0132B1
:1011D000D2B25A76DCE70022DA75002C06D0032062
:1011E000A4E70122084B00201A609FE70F209DE72B
:1011F00011209BE7D4020020002000404421004041
:10120000082100402421004004200040064A937E2B
:10121000002B07D105490B6005490B6005490133D7
:101220000B6093767047C046D40200202421004012
:101230000821004000200040C12210B5604B920000
:101240009A5884B092054DD55E4A1168002949D05C
:10125000002111608121C2228900920099505A4BCD
:101260009A7E002A02D10121584A11600222694661
:101270000A7090215248C900425842506946039270
:10128000DA7D68460A72DA68196801920022DA7516
:101290001A765B6898474E4A1368002B10D04A4B69
:1012A000988A997D81424FD9002111609A8A996864
:1012B000895C9A8A013292B29A82464B404AD15056
:1012C000454B1A68002A0BD000221A603E4B9A7ECA
:1012D000002A02D001213A4A1160DA7D002A42D167
:1012E00004B010BDC123364A9B00D3585B07D2D54A
:1012F0003A490B68002BCED0334BD87D00283FD124
:101300000860A321C90052585A7ED97D9142C2D1AA
:101310001A7E002A41D19A7E002A02D101212B4A4D
:1013200011608120C222264980009200885000224C
:1013300068460121DA755A7E01700272DA6819680E
:1013400001925B689847A6E7002010600029B7D09B
:101350006A46107011729A689875196801925B68F4
:1013600068469847ACE7002268460121DA755A7E44
:1013700001700272DA68196801925B689847AFE7FA
:1013800000200860A320C000597E1258D86842543B
:101390005A7E0132D2B25A76B6E7DA751A69D9683E
:1013A000DA6000226C46587E1A765A760132207234
:1013B00001912270196868465B6898476BE7C046E0
:1013C0000020004024210040D402002004200040DE
:1013D0001C2100401C050000442100400821004061
:1013E00003210A4802680A430260094802680A4366
:1013F00002600849084A094B9B1A03DD043BC858A0
:10140000D050FBDCFEF70CFFFEF78AFE24050040FF
:1014100054050040604300000000002088000020C8
:10142000FEE7FEE7FEE7FEE7FEE7FEE708B5064B50
:101430001868002803D1054902220A7002E001F071
:1014400049F9012008BDC046F00200203103002008
:10145000014B1868407E7047F002002008B500F08C
:1014600011FE002802D100F0F8FD01E0FFF72CFB8F
:1014700008BDF8B5051C0F1C161C072804D904224A
:101480001B4E0020327031E003220029F8D00622E2
:10149000202EF5D800F04CFE09220228F0D8281C96
:1014A00000F04AFE0A220228EAD800F049FE08228B
:1014B0000128E5D900F0F4FD4378041C06700120F2
:1014C00003436370391C321CA01C02F0EBFEE8B22F
:1014D000211C00F0F9FD051C0120002D06D1054856
:1014E00002F0CAFA024F0F213970281CF8BDC0461D
:1014F00031030020DD000500F8B5061C0D1C171C8B
:1015000000F01AFE002803D1154F0B253D7025E091
:101510000322002D07D0301C00F0FCFD3A68037850
:101520009A4204D206220E4E0020327016E0301C81
:1015300000F0E6FD041E0AD00278811C3A60281CE7
:1015400002F0B0FE201C00F0B5FD012006E00548C9
:1015500002F092FA02490F200870201CF8BDC04624
:10156000310300200501050008B5072804D9044B04
:1015700004221A70002001E000F0DAFD08BDC04628
:101580003103002008B5072805D9044B04220120A7
:101590001A70404201E000F0CFFD08BD3103002089
:1015A00008B500F0CDFD0623181A08BD10B5041EBD
:1015B000072C03D90B4B04241C7003E0FFF7D4FF66
:1015C000022801DD00200CE0201CFFF7DBFF0228D1
:1015D000F8DCFFF7E5FF0623181A0121814292414A
:1015E000504210BD3103002008B50A4B19684A7EED
:1015F000002A04D0084A0C211170002009E00728B5
:1016000003D9054B04201870F7E7C0B200F09CFD29
:10161000012008BDF00200203103002008B5072892
:1016200004D9054B04221A70002003E0C0B200F078
:10163000A5FD012008BDC0463103002010B50128DA
:101640000AD0002803D0022808D1002000E00120A1
:1016500001F028F8012005E00220F9E7024B0522FD
:101660001A70002010BDC0463103002010B500F0F4
:1016700011FD01280AD00224002808D0A04201D17F
:10168000012404E0034802F0F7F900E00024201CE4
:1016900010BDC0467001050038B5134A031C106820
:1016A0000C1C407E002804D0104D02202870002021
:1016B00018E001390F2903D90C4907220A7011E0FB
:1016C000002B03D1094C03232370F0E7084D191CAC
:1016D00010C5221C281C02F0E5FD281C211C00F06E
:1016E000BDFD012038BDC046F002002031030020BE
:1016F000600000200C4B10B51A680C68944201D3AE
:10170000102C04D9094C0720207000200AE0002882
:1017100003D1064903220A7004E00A60191D02F091
:10172000C1FD012010BDC046600000203103002033
:10173000014B18687047C0466000002008B5074B91
:1017400019684A7E002A04D0054B02201870002038
:1017500002E000F01DFD012008BDC046F00200209F
:101760003103002008B500F023FD08BD08B5074B84
:1017700019684A7E002A04D0054B02201870002008
:1017800002E000F01BFD012008BDC046F002002071
:101790003103002008B500F01FFD08BD08B50A4B55
:1017A0001A68537E002B04D0084B02221A700020C6
:1017B00008E0072803D9054804210170F7E700F085
:1017C00011FD012008BDC046F002002031030020B9
:1017D00010B50C1C072804D90422064B00201A70EF
:1017E00006E003220029F8D000F028FD2070012037
:1017F00010BDC0463103002008B5074B19684A7E6A
:10180000002A04D0054B02201870002002E000F0EE
:1018100065FD012008BDC046F00200203103002014
:1018200008B500F061FD08BD08B50E4A031C10683C
:10183000407E002804D00C480222027000200FE0F5
:10184000012B0AD0002B07D0022B01D1012004E08C
:10185000054B0E21197003E0022000F0DDFD012090
:1018600008BDC046F00200203103002008B501F099
:1018700023F80021012801D8014B195C081C08BD80
:101880002043000008B5134B19684A7E002A04D093
:10189000114A0221117000201BE006280FD802F027
:1018A0006BFC12140406080A0C00FC200EE0F82061
:1018B0000CE0F4200AE0F02008E0EC2006E0064B03
:1018C0000E201870E7E7042000E0002000F046FD3D
:1018D000012008BDF00200203103002008B500F00F
:1018E0004BFDF02813D004D8042814D0EC2806D1DE
:1018F0000FE0F82807D0FC2803D0F42805D00120F9
:101900000AE0022008E0032006E0042004E00520AD
:1019100002E0062000E0002008BD08B5064B19686B
:101920004A7E002A04D0054B02201870002002E0F5
:1019300000F0E0FC012008BDF0020020310300208F
:1019400008B500F0DDFC08BD08B5074B19684A7EF4
:10195000002A04D0054B02201870002002E000F09D
:1019600097FC012008BDC046F00200203103002092
:1019700008B500F093FC08BD08B5074B19684A7E0E
:10198000002A04D0054B02201870002002E000F06D
:10199000CBFC012008BDC046F0020020310300202E
:1019A00008B500F0C9FC08BD08B5074B19684A7EA8
:1019B000002A04D0054B02201870002002E000F03D
:1019C000A5FC012008BDC046F00200203103002024
:1019D00008B500F0A3FC08BD08B5074B19684A7E9E
:1019E000002A04D0054B02201870002002E000F00D
:1019F000A9FC012008BDC046F002002031030020F0
:101A000008B500F0A5FC08BD08B50B4B19684A7E67
:101A1000002A04D0094A0221117000200AE000289F
:101A200005D0012803D0054B0E201870F5E700F013
:101A30005BFF012008BDC046F002002031030020FA
:101A400008B500F057FF01384342584108BD08B5BA
:101A50000A4B19684A7E002A04D0094A02211170F3
:101A600000200AE0002805D0012803D0044B0E20F6
:101A70001870F5E700F050FF012008BDF0020020CB
:101A800031030020F8B51E4D00241E4E071C281CF3
:101A9000211C0C22083034706C60FEF7B7FB1A482A
:101AA00000F048FE2860A04203D1012030700020E1
:101AB00024E0164B181D1968FFF7EEFD051C381CB5
:101AC000FFF7BCFD0540042000F0EEFB201CFFF7F3
:101AD0009BFFEFB207400120FFF7D4FE0740022032
:101AE000FFF7A2FE0740201CFFF7B1FF041C0120F6
:101AF0003C4000F0E7FE002CD7D00120F8BDC046E6
:101B0000F002002031030020831B00006000002051
:101B100008B500F007FF01384342584108BD024BA9
:101B20000022DA607047C046F0020020014BD868FE
:101B30007047C046F0020020044B002200B51A7224
:101B4000904202D018610120187200BDF0020020FE
:101B5000014B18787047C04631030020014B00222A
:101B60001A70704731030020014B58687047C04617
:101B7000F0020020014B00225A607047F002002062
:101B80007047F0B589B0040C031C060A8446019026
:101B9000101C039297B2020C0D1C002002910092BF
:101BA000E1B2624606AC069060600590D0B21B0EB2
:101BB000F6B2052854D802F0DFFA03142943403D59
:101BC0006A4649B2484223701388E080281C678027
:101BD000A38000F06FFA301C06996268FEF76CFF74
:101BE00041E022490B68587E002802D1204801F0CC
:101BF00043FF281C6D4600F05DFA67802F88301C7B
:101C0000A78006996268FEF75BFF2CE048B205AC3E
:101C1000424223706280002B07D0002D02D115486C
:101C200001F02AFF281C00F045FA301C0599FEF748
:101C30004DFF18E0FEF748FF15E0FFF7A1FF12E0A7
:101C40000A4DE9682B7A0131E960002B0BD02F692E
:101C5000002F02D1FFF702FC05E0013F2F6102E0F7
:101C6000054801F009FF09B0F0BDC046F0020020B0
:101C7000B5030500C3030500E3030500024B034958
:101C80000F221A704860704731030020F0020020D4
:101C900000B5064A01231178022903D05068421E7C
:101CA000904100E0181C1840C0B200BD3403002071
:101CB00008B5FFF7EDFF044B044A002801D0D068B7
:101CC00000E09068186008BD080300206C03002045
:101CD00008B5044B5A68002A01D0013A5A60FFF750
:101CE000E7FF08BD3403002010B500231A1C041CB4
:101CF0001C41012121400724E41AA1400A43013379
:101D0000D2B2082BF3D1101C10BD70B50024061CF4
:101D1000251C301CE040C0B2FFF7E6FF1823191B5A
:101D2000884008340543202CF3D1281C70BD38B5F9
:101D30000D1C01F071FE084C63699D4202D80748F2
:101D400001F09AFE60690122291A054802F058F94B
:101D50000021616138BDC046340300204D060900F2
:101D6000593A000007B5A12303210F4A8B40D150F7
:101D700001F094FD002815D002280AD9032811D1BA
:101D8000002300930193181C191C1A1C01F09EFCDF
:101D900003E00020011C01F035FD042802D00348B7
:101DA00001F06AFE07BDC04600F00140E8010900ED
:101DB00008B501F027FFA1230E4AD900505001F0C9
:101DC0006DFD012807D001F069FD022802D00A4804
:101DD00001F052FE002001F0B9FA02F093F9074B2E
:101DE000A221CA0098500648064AC168486898501F
:101DF00008BDC046001000401E06090000F001406A
:101E0000080300201405000008B502F0EDF80128D1
:101E10000FD002F0CDF8074B187F002803D18021A6
:101E20000122CB055A60002001F0F6FD024A002095
:101E3000506008BD6C0300203403002010B501F091
:101E40006AFD00281AD00E4B00229A81DA8101F037
:101E5000C5FB0C4C0C49605001F0C0FBA6220123CD
:101E60008340D100635001F0BFFB084C206001F0BB
:101E7000C1FB074B6060E360FFF79AFF10BDC046EF
:101E800034030020001000402C0500005003002007
:101E9000391F000008B502F0A7F8012822D101F08F
:101EA000D5FD002802D0104801F0E6FD1E210F48A4
:101EB000002202F0A5F80E4B197F002902D002F093
:101EC0006BF80FE00B480C4B012202605960802137
:101ED000C8050260C046C046C046C0465A68002ACF
:101EE000FCD0ECE708BDC0462C060900593A0000BA
:101EF0006C03002014050040FC0000401FB5FFF7F4
:101F000083FF01F0D9F80A4A002301A805210170D6
:101F100043601C1C0381438143708370C3709370C2
:101F2000537601F09DFA03480470FFF71BFF1FBDB5
:101F30003403002068030020F0B53E4B8022D0001F
:101F4000195887B0012904D03B4C00261D59B542D1
:101F500006D13A4E2022776800263B789A42764195
:101F6000374C012561692E40281C002901D102F05F
:101F700041F8284201D10120606101F08FFC012865
:101F800002D0304801F078FD2F4DEF683B7D002BEB
:101F900002D02E4801F070FD01F08EF8002E47D0DF
:101FA0000120011C01F02EFC042836D802F0E4F8D0
:101FB00003321832320001F017FBE289071CA689B0
:101FC000019201F00BFBE9686D46897D0497AF88AB
:101FD00003AB00221A701E815F815870997014E063
:101FE00001F002FB071CE089A689019001F0F6FAD6
:101FF000EB686D469A7D0497AF8803AB00219A7019
:1020000019701E815F8158700122DA70181C01F06E
:1020100027FA02E00E4801F02FFD01F019FE0D4EE7
:10202000206170696060FFF743FE002001F016FE3A
:1020300007B0F0BD00100040340500005003002040
:1020400034030020A806090008030020A90609009F
:10205000C80609006C030020704708B5012282F30E
:102060001088074B597E002905D09878002802D1A6
:102070009A70FFF70FFF002282F3108808BDC04658
:1020800034030020024B0120597E48407047C0466F
:1020900034030020014B18787047C04634030020F9
:1020A00008B5012383F3108801F094FC002181F32B
:1020B000108808BD08B5012383F3108801F08EFC59
:1020C000002080F3108808BD08B5012383F3108831
:1020D00001F0EAFB00280DD008488278002A04D1DC
:1020E000417E002901D0FFF7D5FE002383F310883D
:1020F000012001E080F3108808BDC04634030020B1
:1021000008B5012383F3108801F0F6FB002181F369
:10211000108808BD08B501F0EAFB08BD08B5012329
:1021200083F3108801F0D3FB002181F3108808BDF0
:1021300008B501F0D8FB08BD08B501F0E7FB08BD04
:1021400008B501F04FFC08BD10B50123041C83F352
:10215000108808480278002A05D0417E002902D064
:10216000054801F089FC201C01F0B5FB002484F334
:10217000108810BD34030020FB02090008B50123BC
:1021800083F3108801F0BDFB002080F3108808BDA8
:1021900008B5044B1862FFF7B8FD0349034A5050D5
:1021A00008BDC0466C0300201C0500000010004064
:1021B000014B186A7047C0466C03002008B5044BF9
:1021C0005862FFF7A2FDA421024ACB00D05008BDFF
:1021D0006C03002000100040014B586A7047C04655
:1021E0006C030020F8B5031C081C072B1AD80F4AF3
:1021F00003261E40D118F600FF24B4402831E743DF
:1022000008700B4C032B01D80A4D01E0A525ED0009
:1022100063591F406751FFF767FD6759B040074397
:10222000675102E0044801F027FCF8BD6C03002070
:1022300000100040240500003903090010B5041EF9
:10224000072C02D9034801F017FC034B181928305A
:10225000007810BD410309006C03002038B5051C4F
:102260000C1E02D1074801F007FC002D02D10648E0
:1022700001F002FC054B00209D605C6001F0D6FC83
:1022800038BDC0464803090049030900080300207F
:10229000014B58617047C0466C030020014B5869E0
:1022A0007047C0466C030020064B074AA32110B5B7
:1022B0005877CB00D4580104044820400843D0503C
:1022C00010BDC0466C03002000100040FFFFF8FF67
:1022D000014B587F7047C0466C030020014B1861CA
:1022E0007047C0466C030020014B18697047C04618
:1022F0006C030020014B58607047C0466C030020FF
:10230000014B58687047C0466C03002008B5024B6B
:10231000D860FFF7CDFC08BD6C030020014BD868E6
:102320007047C0466C03002008B5024B9860FFF769
:10233000BFFC08BD6C030020014B98687047C04685
:102340006C030020014B58837047C0466C0300208B
:10235000014B588B7047C0466C030020034B044967
:10236000044A3033187050507047C0466C03002048
:102370000C05000000100040014B30331878704706
:102380006C030020184B10B531331870174A184BE6
:10239000FF249958A1439950032821D8995801F056
:1023A000EBFE1D020A140124214399501149FF201C
:1023B0005850114906E00220014399500F490D4A37
:1023C00099500F49A722D20008E0032421439950D5
:1023D0000C480849A7225850A2400021995002E019
:1023E000094801F049FB10BD6C03002034050000D2
:1023F000001000403C05000007010000FFFF000046
:1024000021100100FFFFFF00C2030900014B31331F
:10241000187870476C0300201F4B00B532331870DA
:10242000012821D0002810D0022834D1A2211B4A33
:10243000CB00D0501A491B481B4A08601B4B1C4854
:102440001C491A6008601C4A20E0A223134AD900E4
:102450005050134B1348154A186013491748154B31
:1024600011601860164A11E0A2230C4AD90050509E
:102470000B4B0C480C490D4A186011601148124A68
:102480000C4B124918601160114A02E00E490A60B3
:10249000104A1148026000BD6C030020001000408B
:1024A00024170040005000784E00005428170040C8
:1024B00008800C602C1700408864720003800C6058
:1024C0002264720002800C603017004011646600C4
:1024D000DEC08F823E420F8234170040F8B5A12241
:1024E000334C344B344E354DD000002703210122AC
:1024F000F750315067516251E05831490F22014085
:10250000E150E558062095430543E550E1582D4D2F
:10251000C02290020D400543E550A323DD00615920
:10252000294A80230A40625160595904014361518C
:102530006059FF229043202318436051615923487A
:10254000C02208406051224853000221C15001F0CE
:10255000D5FD2049204A70507251204D03237351FC
:102560001F4800F0E1FD1F4E1F4DF060687FFFF730
:102570009BFE286AFFF70CFE686AFFF71FFEE8194A
:1025800028300178381C0137FFF72CFE082FF6D1D0
:102590002F1C30373978154AA1502C1C3134207843
:1025A0003235FFF7EFFE2878FFF736FFF8BDC0465B
:1025B000001000401405000000F00140FC0F000076
:1025C000FFFEFFFFFFFFF0FFFFFFFFFDFF00FFFF2C
:1025D00000E100E01C0500000411004004050000BB
:1025E00050030020080300206C0300200C050000AD
:1025F00070B5274E86B0337872789A4245D0002B5A
:1026000001D1FFF76BFF7078002801D1FFF7AAFB1B
:102610002049214D00246C5000F04EFD1F4D2C60D0
:102620006C602C61AC60EC603378012B08D101F058
:1026300035F9A04217D0201C211C01F0E3F812E06C
:10264000022B10D100F038FD154A2C61147001F0F6
:1026500025F9032807D100940194201C211C221C79
:10266000231C01F033F8FFF723FB7078002430704F
:1026700003A8042606704460048144814470847079
:10268000C47000F0EDFE012000E0002006B070BD37
:10269000340300201405000000F001405003002026
:1026A0006803002008B5012383F3108808490A78DD
:1026B000824208D04870487E002802D1FFF798FF78
:1026C00001E0FFF7E7FB002383F3108808BDC04655
:1026D0003403002038B5124B5A7E1C1C002A1DD131
:1026E000FFF7FCFE0F488168051C002902D10E4847
:1026F00001F0C2F96B68002B02D10C4801F0BCF963
:1027000001F098F9002802D0094801F0B5F900203D
:1027100001F082F901226276FFF7BCFB38BDC046AA
:1027200034030020080300205E0209005F02090054
:1027300066020900F8B5071C012080F31088544D8B
:10274000544B554E0024002203211C605C609C60A9
:10275000DC601C611A7529702A766A76B460746030
:102760006870AC706C60AC60AC81EC812C616C61A9
:1027700001F0D6FB381C00F059FE00F0F5FE201CDD
:1027800001F042F9301C01F07BF9444FC220830074
:10279000F958434AC0260A40FA50B0003B58414914
:1027A000C522194039509600BB59FF204021834370
:1027B0000B43BB510120FFF775FF3B4E3B4B3C48A1
:1027C000311C3362706228310123301C0B702930B8
:1027D0000223311C03702A3103200870FF22311CB0
:1027E00032612B3104220A707277321C2C320520A0
:1027F0001070321C2D320621301C11702E30072231
:102800000270301C2F300821321C01703032002041
:102810001070321C0120311C32321070313196227E
:102820009A400B701E2171617260F360FFF740FAED
:102830000F23B360FFF73CFA012074833076707683
:102840000021201C6924317701F0D0F834606E78C3
:102850000124A64202D0174801F00EF900262C7080
:10286000AE706E60AE60AE81EE812E616E612E76CE
:102870006E76FFF733FEC023802180225800CC0003
:1028800053033C503B5086F31088281CF8BDC046CB
:1028900034030020500300200803002000E100E082
:1028A000FFFF00FFFF00FFFF6C03002004070A0D7D
:1028B00005080B0E3C020900014B323318787047B3
:1028C0006C030020054B10B5041CD868002802D109
:1028D000034801F0D1F803490C7510BD080300202E
:1028E000F603090050030020014B18767047C046DC
:1028F0006C030020014B187E7047C0466C0300201B
:10290000014B58767047C0466C030020014B587E3F
:102910007047C0466C030020014B18777047C046D3
:102920006C030020014B187F7047C0466C030020E9
:1029300008B501F05BF808BD08B50B4BD868417DC0
:10294000002906D0012000F05BFB084B9A89013278
:102950009A810749074B084A00205850516813686C
:10296000C91AFFF7E4F908BD08030020340300206A
:102970001405000000F001406C030020084B10B566
:102980001A781C1C012A02D0064801F075F8064985
:10299000064A0220002320700B61CA6010BDC046A9
:1029A0006803002092050900500300204D2A000012
:1029B00010B500F081FB194819491A4C0023012277
:1029C000027023610869A623174AD900505000F00D
:1029D00065FF00280AD100F075FD01280DD900F02F
:1029E0000FFE6060002808D1104804E000F056FF98
:1029F000032802D00E4801F03FF8022000F0A6FCA8
:102A0000002000F0FDFA00F049FF032802D0094839
:102A100001F032F8FFF7B2FF10BDC0466803002096
:102A20006C03002050030020001000407B050900CB
:102A3000800509008805090008B5034B05221A70B6
:102A4000FFF7B6FF08BDC04668030020F0B5484A4E
:102A50008023D800115887B0464C012904D0464D38
:102A6000002356599E4205D16768002339782020FB
:102A700088425B41414E03250021012735702160CA
:102A80003B408B4255D08123D80015583C4B115800
:102A90003C48D15002A912583B1C00910194381CAB
:102AA000291C00F013FE032841D801F065FB1E022B
:102AB000204E0298002802D0334800F0DDFF281C89
:102AC00000F024FF002802D1304800F0D5FF304943
:102AD00003A8CF680223B97D0027037047603A1C22
:102AE00007814781457081701DE02A482BE0029ADA
:102AF000002A02D1284800F0BFFF281C00F006FF82
:102B0000002802D1254800F0B7FF214F03A8FB6839
:102B1000029F997D02220023027047600381438156
:102B2000457081700122C27000F09AFC0DE01C48D3
:102B300009E000930193181C191C1A1C00F0C6FD33
:102B4000042802D0174800F097FF2568002D06D111
:102B500000F0B2FA65752561FFF72AFF05E012481B
:102B60000122627520610424347007B0F0BDC046B4
:102B700000100040500300203405000068030020CE
:102B80002C0500000C040000B8050900B905090077
:102B900008030020BD050900C0050900C1050900A2
:102BA000C8050900CF050900392A000070B50C4D91
:102BB000A124E4002E5901F025F886420AD001F044
:102BC00021F82851FFF7F4FE064900204968FFF775
:102BD000AEF870BD044B18780028F3D0F4E7C04677
:102BE000001000406C03002068030020F0B5864C04
:102BF0000125636989B0281C002B01D101F0FAF985
:102C00000126284000D0D3E02178B14202D100F063
:102C10004BFA10E0022908D000F042FFFFF758F805
:102C2000A678002E00D0A9E00EE0784A1378033B86
:102C3000DDB2AE4240410028EED0754E754877684F
:102C4000012279086161CBE0FFF7D2FC704D071ECD
:102C500000D08EE020780190061E012E06D00028BC
:102C600063D0022865D1FFF7A1FF65E000F024FAE8
:102C700000F014FE00281DD100F024FC012851D9D9
:102C8000FFF706F8071E0CD000F0FAFF002849D124
:102C9000287E00280BD100F0DBFF2669B04241D12D
:102CA00005E0206900F0C2FF381C00F0D7FFFFF7F5
:102CB000C5F837E0698B002920D0A2898A421DD34C
:102CC000311C381C00F09EFD00F08EFC0290A289A1
:102CD0000392E68900F082FC69460A79029905AB05
:102CE0001A7006910C226946515A5870181C1981A5
:102CF0005E819F70DF7000F0B3FB13E001F07AF9A2
:102D0000002802D0444800F0B7FEA1234348DF006A
:102D1000C65900F077FF864202D0E1890131E18196
:102D2000FFF746F80120296800E06968FEF7FFFF19
:102D300002E03B4800F0A0FE6D7E012D23D1FEF79E
:102D4000A7FF00281FD12478012C07D0002C0DD01C
:102D5000022C18D0334800F08FFE14E000F09EFDE6
:102D6000002810D100F034FC00280CD1FFF74CF8FB
:102D700009E06968301CFEF7DAFF04E0647E002C8D
:102D800001D0FFF7BBF800F09DFB01280CD905A886
:102D900000210323037041600181418141708170F2
:102DA000C17000F05DFB2DE01F4800F065FE29E0DA
:102DB000FEF78EFFA778002F1DD12178022912D1AE
:102DC000124B1D78033D012D04D900F069FEFFF779
:102DD000EDFE17E00E4F321C786841080D48616126
:102DE00001F00EF90EE000F05BFE094A381C516854
:102DF000FEF79DFF06E000F053FE607E002801D044
:102E0000FFF77CF809B0F0BD340300206803002010
:102E10006C030020593A00000A0509000010004028
:102E200058040900720409008C04090007B50190D8
:102E3000C046C046C046C046C046C046C046C04662
:102E4000C046C046C046C046C046C046019B013B86
:102E50000193002BECD107BD70B58022164B910079
:102E600000245C501549C2250E78AD00144A032E8B
:102E700007D109267442C1265C510825B4001D51B2
:102E80000AE0012676425E51C0230E4D02265B0009
:102E9000EE50146103244C7000235360536193601F
:102EA0004B600B75984205D0074801680A69002AF3
:102EB00000D0904770BDC04600100040A003002025
:102EC000FC10004000E100E018030020F8B53F4B83
:102ED0001A69012A53D19D693D4C80229600013523
:102EE000032104209D611870C025A15139496A0051
:102EF00002278F50384F00263E61C1227E607E61DE
:102F0000BE60364E08259100655035682A7D3D1C0F
:102F1000002A17D0A927F9006258314F9A75A023CB
:102F2000D9007A58024202D12E4800F0A5FD0020B7
:102F30000123A12228620421A361D300F950A9270B
:102F4000F90060506868002802D0274800F094FD1E
:102F50002D69002D02D0254800F08EFD244A5368CB
:102F600099072DD43768F968002900D0884736685A
:102F7000707D002828D035681E4AA55024E0022A1A
:102F80001AD1154900250D6111484D6180244D600D
:102F900001278D60C221A6007A428C0085511D70E8
:102FA0000251032058705D601D750C4B1E68376917
:102FB000AF4209D0B84707E00F4800F05DFD03E0DD
:102FC0000E4800F059FDCDE7F8BDC046A003002033
:102FD0000010004000E100E0FC1000401803002059
:102FE00000F00140AD020A00B6020A00B7020A0072
:102FF000FCE100E004050000E7020A00B8020A0054
:1030000070B51E4D061C6B7D6C78002B02D11C48E0
:1030100000F032FD287D002802D01A4800F02CFD77
:10302000012200212A756975022C0CD8164823014B
:10303000C318002E01D11E683260621E012A05D815
:10304000997A297002E0114800F016FD104D2868A9
:10305000037D002B11D0022C0FD10E4C0E4E251CDF
:103060003259530702D40D4800F006FD0C49485967
:10307000002802D10B4800F0FFFC70BDA003002027
:1030800021010A0022010A00244300003A010A003B
:10309000180300200405000000F0014040010A0070
:1030A0000010004041010A00024B98680138434279
:1030B00058417047FC100040F8B5164B164C0220E2
:1030C0000121C027C222D8674D4282407B00134EA7
:1030D0008021134FA55081400025F05001226550FA
:1030E0007D61104D2261A2612C78944201D10620AD
:1030F00003E0023C012C00D9101C0024FFF796FECF
:103100007C61201C2C70FFF7A7FE02206C753060DC
:10311000F8BDC04604E100E00010004000E100E01E
:10312000FC100040A003002038B50E4B0E4C186078
:103130000E490F4B0F4A0225201DC56799500E48B6
:10314000A421CA009850FFF7B7FF0C4800230321C1
:103150000370417043600361037543758375256097
:1031600038BDC0461803002000E100E01410004004
:1031700000F001402405000004110040A0030020DD
:1031800070B55C4C2369607D01336578236100284C
:1031900002D0594800F070FC2178032948D1574EDD
:1031A0003269002A44D0012D35D12269032A02D088
:1031B000534800F061FCA06902210130514A80258A
:1031C000A06100238D400120217053514542C2204F
:1031D00088401550C02568004B4D29504B4933613C
:1031E000096873607361B36003266670636023755A
:1031F000087D98420DD0A925E80016580125A6752E
:103200003E4C042623629561A124414DE4002E51D9
:103210001350CA6865E0022D08D12369012B02D042
:103220003C4800F029FCFFF751FE61E03A485DE0C0
:10323000032D5AD0012D3CD12169012918D12F48E5
:103240000021304B0126C222416081607042910012
:10325000C1265850B0001D502C4D304E2A68117DAB
:10326000002902D02A4D0420A851E4689C513FE077
:1032700002293DD1234E214A8023002598000221B6
:10328000C22315615561556035504A429800C121ED
:1032900032508B000822F250032626706560257597
:1032A0001A4C2568261C2869002800D08047306801
:1032B00016E0022DB7D0657819482B01C1180E7B96
:1032C0000025AE4203D00D4A15696A1E95418B7ADE
:1032D00001202370FFF7C0FD002D09D00B4C2068A2
:1032E0008268002A04D0904702E00E4800F0C4FB38
:1032F00070BDC046A003002090010A00FC100040F1
:103300009F010A000010004000E100E018030020C7
:1033100000F00140A4010A00A9010A000405000010
:1033200024430000D6010A0008B5022804D8054B42
:1033300018784342584103E0034800F09DFB002009
:1033400008BDC046A0030020F9020A00F8B52B4CC6
:103350000301061C2A4F207DFF18002802D02948AF
:1033600000F08AFB301CFFF7DFFF002802D126485F
:1033700000F082FB0121C222244D0023484291002B
:103380006375C022685022490220520088502148AB
:1033900066700268116852682361A3613B68A1608E
:1033A000E2606360022E18D8387A80239B00E850D0
:1033B000F87A194B002805D1E950EA58002A08D1BB
:1033C000164804E0EA50E958002902D1144800F0F8
:1033D00053FB7F7AC1208300EF500E4D29680A7D90
:1033E000002A07D0022E05D10B480E4B00260427D9
:1033F000A6751F5001256575F8BDC046A0030020C5
:1034000024430000DB000A00DD000A000010004039
:1034100000E100E0180300200405000000010A009C
:1034200005010A0000F001407047C04610B5041EB7
:1034300002D1084800F020FB074B00221C60191D38
:10344000DA670833CA678020DA67044B44031C60DC
:1034500010BDC04629000B00C403002000E100E0BD
:1034600070B5144C051C2368002B02D1124800F0E3
:1034700003FB201C0830C16F092902D90F4800F056
:10348000FBFAE66F0C225643A319043343CD43C322
:10349000251C0835E86F0130E867E16F0131E1670D
:1034A000E66F092E01D90022E2678024044B6503F0
:1034B0005D6070BDC403002034000B0035000B00BC
:1034C000FCE100E0034B0A200833D96F421AD0B266
:1034D0007047C046C4030020F0B587B0012383F3D2
:1034E0001088134C124D0834E06F00281BD02A1DA1
:1034F000D16F0C26714303AB69180431181CE0C965
:10350000E0C0E76F0026013FE767D46F0134D4675E
:10351000D56F092D00D9D66786F31088044A17683D
:1035200007CBB847DAE780F3108807B0F0BDC04694
:10353000C403002038B50A4C051CE36F002B02D1F0
:10354000084800F099FA291C0831E06F00F03CFCB3
:103550000021884201D0E1670121081C38BDC04626
:103560004C0400206F020C0010B500F0B7FB0021E6
:10357000124A8800002384188818A361A363041CDE
:1035800080348830237003700D480C18013123708B
:103590000829EDD1111C101C141C903191305834A5
:1035A000137053609360D360136153610B700370A9
:1035B0002370D36792320123137010BD4C04002096
:1035C000E0040020014B185C7047C046E004002076
:1035D000014B9033187870474C040020014B586819
:1035E0007047C0464C040020014B98687047C046A5
:1035F0004C040020014BD8687047C0464C040020A2
:1036000010B5104C2378002B02D00F4800F034FA8C
:10361000E06F002802D100F08BFBE067E06F00282C
:103620000FD0012143784A4206210B4343700270B8
:103630000023C218FF2101339170202BF9D10323FD
:10364000237010BD4C0400203B010C0038B5124C17
:103650002378002B1ED1201C90300178002919D12D
:103660000825606900F028FC002805D0231C60694B
:10367000903301221A70206161690131082900D15B
:103680000021231C616190331A78002A02D1013D88
:10369000002DE6D138BDC0464C04002038B5094D98
:1036A000041C2B1C90331878002804D02969A142EF
:1036B00001D1FFF7CBFF2A19034B0025803215708B
:1036C0001D5538BD4C040020E0040020F0B5464DE7
:1036D00085B00393EB6F061C0C1C171C002B02D14A
:1036E000424800F0C9F92878032802D0404800F089
:1036F000C3F9E96F01234A781A4202D192352D7835
:103700006B400425002E61D050070126810F1E401A
:10371000251C231C0A0608330E353F023249A80037
:103720003F0A02930B5817430B980A9A002515601D
:1037300005609F4233D0201CFFF7FCFE0190AE4293
:1037400000D0051C01232E1C1E40002828D0029901
:10375000254A063188008750039F1D1C002F20D06A
:10376000244F3B5D002B1CD0201C00F0A5FB002843
:1037700002D1214800F080F9201C00F05BFB051EFF
:1037800002D0201CFFF78AFF0A990D60002D02D19C
:103790001A4800F071F900203855022501E0019522
:1037A0000325002E0DD0201C00F06CFB0B9E30601A
:1037B000002802D1124B336005E00E4F01223A552A
:1037C00001E00B9C26600199002905D1064CE06FB1
:1037D00000F0CCFA0020E067034A00261670FFF7DD
:1037E00035FF281C05B0F0BD4C0400205B010C0027
:1037F0005C010C00E004002091010C0096010C001B
:10380000A4040020F8B51F4C071C23780E1C013BB4
:10381000012B02D91C4800F02FF90425002F19D0E4
:103820002078012802D0194800F026F9E268002A21
:1038300002D1174800F020F9E16800250F78AF4267
:1038400008D06068FFF776FE0225002802D11148F3
:1038500000F012F9002E0ED06768381C00F0EAFA6A
:10386000061E02D0381CFFF719FFA3689E4202D043
:10387000094800F001F900202070FFF7E7FE281C3E
:10388000F8BDC0464C040020FC000C0002010C00F6
:1038900003010C000E010C001E010C00014B1878F6
:1038A0007047C0464C04002038B5041C0D1C00F0C5
:1038B00013FB002801D1002008E0281C211C00F087
:1038C00083FA0028F7D0FFF7C1FE012038BD08B504
:1038D00000F0D8FA08BD10B5041CFFF7DFFE201C6D
:1038E00000F000FB10BD08B500F0E6FA08BD08B511
:1038F000083000F0C7FA08BD08B5083000F09AFAA1
:1039000008BD08B5083000F0EDFA08BD08B508306C
:1039100000F0D2FA08BD10B52A4C2378002B02D053
:10392000294800F0A9F8201C90300178002927D000
:103930002069606000F0A6FAA060002802D1234848
:1039400000F09AF8A26801235078034004D1211CAA
:1039500092310A78002A10D16068FFF7D7FF022859
:103960000ED8E36F002B02D100F0E2F9E067E16FBF
:10397000E160002904D0012001E0E3600220207012
:103980002278002082421BD0A368834202D11048D3
:1039900000F072F820696060063081006318DA7800
:1039A00003210132D0B2D870A36808405A78410090
:1039B000062082430A435A7090340023237001206A
:1039C00010BDC0464C040020C3000C00C9000C0010
:1039D000E7000C0008B500F0ABF908BD08B500F031
:1039E000C5F908BD08B500F077FA08BD014B923360
:1039F000187070474C040020014B923318787047C0
:103A00004C0400207047C046024B987058701870E4
:103A10007047C046E804002010B5041E012C02D9EE
:103A2000024800F029F8024B5C7010BD2A000D001E
:103A3000E8040020014B18787047C046E8040020D5
:103A4000014B98787047C046E8040020014B587835
:103A50007047C046E804002008B5054B1A7858782E
:103A60009A701870034B8100CA58904708BDC04631
:103A7000E80400207400002008B5FEF7FFF808BD38
:103A800010B5041E02D10448FFF7F6FF034B0022D5
:103A90001C605A609A6010BD2A0001001C030020BF
:103AA000094B00B518689A68016801329A608A4229
:103AB00008D359684068002201319A6059608142F8
:103AC00000D35A6000BDC0461C030020F8B5002892
:103AD0002AD0164CA36801280ED1276801333A6812
:103AE000A360934220D36068796800250130A56007
:103AF0006060884218D316E02668C7183568A7604A
:103B0000381C291C00F042FB62683B1C8018606076
:103B1000AB4201D35B1BFBE771686568A3608D4214
:103B200001D36D1AFBE76560F8BDC0461C03002099
:103B3000024B1A6899681068401A70471C030020ED
:103B400070B50D4D041C2B685868844202D30B4895
:103B5000FFF792FF6E68B4420CD002D829684A6819
:103B6000A418FFF7E5FF2D68F3432E681919714378
:103B7000081800E0002070BD1C0300206800010050
:103B800070B5041C0D1C884202D30B48FFF774FF6C
:103B90000A4E33681868854202D90948FFF76CFF5E
:103BA000B168601AA14206D30020A94203D332684B
:103BB00015686E1A301970BD7D0001001C030020CD
:103BC0007E00010038B5041C101C0D1CFFF7B8FF67
:103BD000002801D0001911E0201C291CFFF7D0FF9C
:103BE000041CFFF7A5FF031C201E984206D30449BE
:103BF0000D686A682C68013A5443001938BDC04604
:103C00001C030020074B10B51A68596850681C1C2B
:103C1000814202D30448FFF72FFF236861689A6846
:103C2000505C10BD1C030020B200010038B5064BEB
:103C3000041C1A681D1C5068844202D30348FFF715
:103C40001BFF6C6038BDC0461C030020B90001009A
:103C5000014B58687047C0461C03002038B5064B1E
:103C6000041C1A681D1C1068844202D30348FFF725
:103C700003FFAC6038BDC0461C030020C500010036
:103C8000014B98687047C0461C03002010B50F4BCD
:103C90001A68002393420BD20D499C006458A0423D
:103CA00003D10C48FFF7E8FE0CE00133DBB2F1E78B
:103CB00000242222624308495318984204D0013458
:103CC000062CF6D1002000E0012010BDEC040020FD
:103CD000F0040020F6000300F805002010B50022D3
:103CE0000F495000801800230C1801326370A37034
:103CF0004354102AF4D122225A430A490A4854183C
:103D0000211C9A0084502231DE22227001348C4220
:103D1000FAD10133062BEED1044C236010BDC0460E
:103D200008050020F8050020F0040020EC04002025
:103D300038B50A4B1C68002C0ED0621E0849900052
:103D40004458084D1A604550201CFFF79FFF00287B
:103D500002D10548FFF790FE201C38BDEC0400207E
:103D6000F0040020ADDEADDE7D00030070B5104C28
:103D7000051C2368052B02D90E48FFF77DFE281C81
:103D8000FFF784FF002802D10B48FFF775FE21687A
:103D90000A488A0011580A4B061C994202D0094869
:103DA000FFF76AFE206882000130B550206070BDC8
:103DB000EC0400208500030086000300F0040020CE
:103DC000ADDEADDE88000300F8B5051C0C1E0F2C1F
:103DD00002D91448FFF750FE281CFFF757FF0028B0
:103DE00002D11148FFF748FE104966003019435CC4
:103DF0000022022B13D80B185F78C0190C4F8000DB
:103E0000C5515D780135E8B258705F78022F00D94E
:103E10005A7032198C5C0134E6B28E540122101CA7
:103E2000F8BDC0468F000300900003000805002085
:103E30003805002038B5041E0F2C02D90E48FFF7B4
:103E40001BFE0E4A65002919885C002813D0531800
:103E5000987809180A488900085899780131C9B238
:103E600099709978022901D9002199702C19155D52
:103E7000013DEBB2135538BDA60003000805002034
:103E80003805002010B5041E0F2C02D90748FFF793
:103E9000F3FD074B62001119C85C002805D05818C3
:103EA00084780B1903499A00505810BDB7000300DD
:103EB000080500203805002010B5041E0F2C02D97B
:103EC0000348FFF7D9FD630002491819405C10BD93
:103ED000C800030008050020014B18687047C04661
:103EE000EC04002038B5051E0F2D0CD90948FFF74A
:103EF000C3FD08E0084B9C4202D10848FFF7BCFD17
:103F0000201CFFF733FF281CFFF794FF041EF1D19C
:103F100038BDC046D7000300ADDEADDEDB000300D8
:103F2000164BA12110B50122CC0000205A60DA60A6
:103F300018515A64124A1C1C9958814202D01148E7
:103F4000FFF79AFD0123C222584291000E4B6050A8
:103F50000022A2215A640420CB00E0500B490C4CF3
:103F6000012022602271627108700A4B8022C021F8
:103F7000D40081405C501C6010BDC04600A00040D1
:103F80004405000035000400FCA00040C4060020E9
:103F90002803002000E100E0034B04490122002037
:103FA0001A6008707047C04600A00040C406002098
:103FB000094A30B501235360084CD3608025084A74
:103FC000C0200021ED009840116011712550517101
:103FD000044A137030BDC04600A0004000E100E07C
:103FE00028030020C4060020014B18787047C04603
:103FF000C4060020014B18797047C04628030020F2
:10400000F7B5334F0092334C8022C2237E79019161
:10401000051C990050026050002E02D02E48FFF778
:104020002BFD002D02D12D48FFF726FD3A68002A0E
:1040300002D02B48FFF720FD3D60009D294E012D49
:104040000DD0002D03D0022D0DD1A92208E00120B2
:10405000254B00996064E5582064716407E0A8224C
:10406000D500655903E02148FFF706FD0025012230
:104070007A71019FA821E81987B20023C8007364F0
:104080002750275800976264174AA758716C1E1C66
:10409000994202D01648FFF7EFFC009BAB4205D3D4
:1040A000AF4201D39F420CD3124808E0301CAF420C
:1040B0007041009DAF427641B04202D00E48FFF7FA
:1040C000DBFC8022C12157028E00A751F7BDC046FC
:1040D0002803002000A000407300040075000400C5
:1040E00076000400FCA000404405000089000400A4
:1040F0009B000400B0000400C900040000487047A1
:1041000048A000400048704740A1004070B58022A0
:10411000134C144DC2235002990000266850666467
:10412000114C2268B24202D11048FFF7A5FC104B97
:10413000012166712068A82226606964EE58D300C8
:10414000EA580C4D1432AE4203D8C0231D02AA42D5
:1041500002D80021964249412171804770BDC04676
:10416000FCA0004000A0004028030020EC00040058
:1041700044050000FF3F000002B4714649084900B1
:10418000095C49008E4402BC7047C04600224308C7
:104190008B4274D303098B425FD3030A8B4244D30F
:1041A000030B8B4228D3030C8B420DD3FF22090251
:1041B00012BA030C8B4202D31212090265D0030B10
:1041C0008B4219D300E0090AC30B8B4201D3CB0306
:1041D000C01A5241830B8B4201D38B03C01A524148
:1041E000430B8B4201D34B03C01A5241030B8B424A
:1041F00001D30B03C01A5241C30A8B4201D3CB0235
:10420000C01A5241830A8B4201D38B02C01A524119
:10421000430A8B4201D34B02C01A5241030A8B421C
:1042200001D30B02C01A5241CDD2C3098B4201D334
:10423000CB01C01A524183098B4201D38B01C01AB2
:10424000524143098B4201D34B01C01A5241030929
:104250008B4201D30B01C01A5241C3088B4201D3D8
:10426000CB00C01A524183088B4201D38B00C01A85
:10427000524143088B4201D34B00C01A5241411AAC
:1042800000D20146524110467047FFE701B50020B9
:1042900000F006F802BDC0460029F7D076E7704767
:1042A0007047C046002310B59A4200D110BDCC5CC7
:1042B000C4540133F8E70000F8B5C046F8BC08BCA8
:1042C0009E467047F8B5C046F8BC08BC9E4670478D
:1042D0000000002019181617000000000000001050
:1042E000090000000B0000000A00000008000000A8
:1042F000000000000000000000E0D7010300000003
:10430000090000000B0000000A0000000800000087
:10431000000000000000000000E0D70103000000E2
:1043200001020000001000401011004003100000C6
:104330000100000000100040000000000B0204001B
:104340000000000004100040000000000708030106
:08435000000000000000000065
:08435800C8BDFF7F0100000059
:10436000000000000000000000000000000000004D
:10437000000000000000000000000000000000003D
:10438000000000000000000000000000000000002D
:10439000000000000000000000000000000000001D
:1043A000000000000000000000000000000000000D
:1043B00000000000000000000000000000000000FD
:1043C0000500000004192A3F4D0000000000000015
:1043D00000000000ED2B000039290000E90000007A
:0843E000C10000000000000014
:04000003000013E105
:00000001FF
